{
    "abi": [
        {
            "type": "constructor",
            "inputs": [
                {
                    "name": "_tokens",
                    "type": "address[3]",
                    "internalType": "address[3]"
                }
            ],
            "stateMutability": "nonpayable"
        },
        {
            "type": "function",
            "name": "addLiquidity",
            "inputs": [
                {
                    "name": "amounts",
                    "type": "uint256[3]",
                    "internalType": "uint256[3]"
                },
                {
                    "name": "minShares",
                    "type": "uint256",
                    "internalType": "uint256"
                }
            ],
            "outputs": [
                {
                    "name": "shares",
                    "type": "uint256",
                    "internalType": "uint256"
                }
            ],
            "stateMutability": "nonpayable"
        },
        {
            "type": "function",
            "name": "balanceOf",
            "inputs": [
                {
                    "name": "",
                    "type": "address",
                    "internalType": "address"
                }
            ],
            "outputs": [
                {
                    "name": "",
                    "type": "uint256",
                    "internalType": "uint256"
                }
            ],
            "stateMutability": "view"
        },
        {
            "type": "function",
            "name": "balances",
            "inputs": [
                {
                    "name": "",
                    "type": "uint256",
                    "internalType": "uint256"
                }
            ],
            "outputs": [
                {
                    "name": "",
                    "type": "uint256",
                    "internalType": "uint256"
                }
            ],
            "stateMutability": "view"
        },
        {
            "type": "function",
            "name": "calcWithdrawOneToken",
            "inputs": [
                {
                    "name": "shares",
                    "type": "uint256",
                    "internalType": "uint256"
                },
                {
                    "name": "i",
                    "type": "uint256",
                    "internalType": "uint256"
                }
            ],
            "outputs": [
                {
                    "name": "dy",
                    "type": "uint256",
                    "internalType": "uint256"
                },
                {
                    "name": "fee",
                    "type": "uint256",
                    "internalType": "uint256"
                }
            ],
            "stateMutability": "view"
        },
        {
            "type": "function",
            "name": "getUserDeposits",
            "inputs": [
                {
                    "name": "user",
                    "type": "address",
                    "internalType": "address"
                }
            ],
            "outputs": [
                {
                    "name": "",
                    "type": "uint256[3]",
                    "internalType": "uint256[3]"
                }
            ],
            "stateMutability": "view"
        },
        {
            "type": "function",
            "name": "getVirtualPrice",
            "inputs": [],
            "outputs": [
                {
                    "name": "",
                    "type": "uint256",
                    "internalType": "uint256"
                }
            ],
            "stateMutability": "view"
        },
        {
            "type": "function",
            "name": "removeLiquidity",
            "inputs": [
                {
                    "name": "shares",
                    "type": "uint256",
                    "internalType": "uint256"
                },
                {
                    "name": "minAmountsOut",
                    "type": "uint256[3]",
                    "internalType": "uint256[3]"
                }
            ],
            "outputs": [
                {
                    "name": "amountsOut",
                    "type": "uint256[3]",
                    "internalType": "uint256[3]"
                }
            ],
            "stateMutability": "nonpayable"
        },
        {
            "type": "function",
            "name": "removeLiquidityOneToken",
            "inputs": [
                {
                    "name": "shares",
                    "type": "uint256",
                    "internalType": "uint256"
                },
                {
                    "name": "i",
                    "type": "uint256",
                    "internalType": "uint256"
                },
                {
                    "name": "minAmountOut",
                    "type": "uint256",
                    "internalType": "uint256"
                }
            ],
            "outputs": [
                {
                    "name": "amountOut",
                    "type": "uint256",
                    "internalType": "uint256"
                }
            ],
            "stateMutability": "nonpayable"
        },
        {
            "type": "function",
            "name": "swap",
            "inputs": [
                {
                    "name": "i",
                    "type": "uint256",
                    "internalType": "uint256"
                },
                {
                    "name": "j",
                    "type": "uint256",
                    "internalType": "uint256"
                },
                {
                    "name": "dx",
                    "type": "uint256",
                    "internalType": "uint256"
                },
                {
                    "name": "minDy",
                    "type": "uint256",
                    "internalType": "uint256"
                }
            ],
            "outputs": [
                {
                    "name": "dy",
                    "type": "uint256",
                    "internalType": "uint256"
                }
            ],
            "stateMutability": "nonpayable"
        },
        {
            "type": "function",
            "name": "tokens",
            "inputs": [
                {
                    "name": "",
                    "type": "uint256",
                    "internalType": "uint256"
                }
            ],
            "outputs": [
                {
                    "name": "",
                    "type": "address",
                    "internalType": "address"
                }
            ],
            "stateMutability": "view"
        },
        {
            "type": "function",
            "name": "totalSupply",
            "inputs": [],
            "outputs": [
                {
                    "name": "",
                    "type": "uint256",
                    "internalType": "uint256"
                }
            ],
            "stateMutability": "view"
        },
        {
            "type": "function",
            "name": "userDeposits",
            "inputs": [
                {
                    "name": "",
                    "type": "address",
                    "internalType": "address"
                },
                {
                    "name": "",
                    "type": "uint256",
                    "internalType": "uint256"
                }
            ],
            "outputs": [
                {
                    "name": "",
                    "type": "uint256",
                    "internalType": "uint256"
                }
            ],
            "stateMutability": "view"
        }
    ],
    "bytecode": {
        "object": "0x60806040526040518060600160405280600161ffff16815260200161407461ffff16815260200161461861ffff168152506003906003610040929190610085565b5034801561004c575f5ffd5b506040516125fe3803806125fe833981810160405281019061006e9190610307565b805f90600361007e9291906100cb565b5050610332565b82600381019282156100ba579160200282015b828111156100b9578251829061ffff16905591602001919060010190610098565b5b5090506100c79190610147565b5090565b8260038101928215610136579160200282015b82811115610135578251825f6101000a81548173ffffffffffffffffffffffffffffffffffffffff021916908373ffffffffffffffffffffffffffffffffffffffff160217905550916020019190600101906100de565b5b5090506101439190610147565b5090565b5b8082111561015e575f815f905550600101610148565b5090565b5f604051905090565b5f5ffd5b5f5ffd5b5f601f19601f8301169050919050565b7f4e487b71000000000000000000000000000000000000000000000000000000005f52604160045260245ffd5b6101b982610173565b810181811067ffffffffffffffff821117156101d8576101d7610183565b5b80604052505050565b5f6101ea610162565b90506101f682826101b0565b919050565b5f67ffffffffffffffff82111561021557610214610183565b5b602082029050919050565b5f5ffd5b5f73ffffffffffffffffffffffffffffffffffffffff82169050919050565b5f61024d82610224565b9050919050565b61025d81610243565b8114610267575f5ffd5b50565b5f8151905061027881610254565b92915050565b5f61029061028b846101fb565b6101e1565b905080602084028301858111156102aa576102a9610220565b5b835b818110156102d357806102bf888261026a565b8452602084019350506020810190506102ac565b5050509392505050565b5f82601f8301126102f1576102f061016f565b5b60036102fe84828561027e565b91505092915050565b5f6060828403121561031c5761031b61016b565b5b5f610329848285016102dd565b91505092915050565b6122bf8061033f5f395ff3fe608060405234801561000f575f5ffd5b50600436106100b2575f3560e01c80637066b5b21161006f5780637066b5b2146101c457806370a08231146101f4578063a4bf044614610224578063a60dc3b114610254578063d035862c14610285578063e25aa5fa146102b5576100b2565b806308f43333146100b657806318160ddd146100e65780632a5bf6d2146101045780634903b0d1146101345780634f64b2be146101645780635673b02d14610194575b5f5ffd5b6100d060048036038101906100cb91906118b2565b6102d3565b6040516100dd91906118ff565b60405180910390f35b6100ee6102f7565b6040516100fb91906118ff565b60405180910390f35b61011e60048036038101906101199190611918565b6102fd565b60405161012b91906119e8565b60405180910390f35b61014e60048036038101906101499190611a01565b610385565b60405161015b91906118ff565b60405180910390f35b61017e60048036038101906101799190611a01565b61039e565b60405161018b9190611a3b565b60405180910390f35b6101ae60048036038101906101a99190611a54565b6103d1565b6040516101bb91906118ff565b60405180910390f35b6101de60048036038101906101d99190611ab8565b6106fc565b6040516101eb91906118ff565b60405180910390f35b61020e60048036038101906102099190611918565b61083a565b60405161021b91906118ff565b60405180910390f35b61023e60048036038101906102399190611b2d565b61084f565b60405161024b91906118ff565b60405180910390f35b61026e60048036038101906102699190611b6b565b610cd3565b60405161027c929190611ba9565b60405180910390f35b61029f600480360381019061029a9190611bd0565b610cea565b6040516102ac91906119e8565b60405180910390f35b6102bd610ea1565b6040516102ca91906118ff565b60405180910390f35b600b602052815f5260405f2081600381106102ec575f80fd5b015f91509150505481565b60095481565b6103056117ff565b600b5f8373ffffffffffffffffffffffffffffffffffffffff1673ffffffffffffffffffffffffffffffffffffffff1681526020019081526020015f20600380602002604051908101604052809291908260038015610379576020028201915b815481526020019060010190808311610365575b50505050509050919050565b60068160038110610394575f80fd5b015f915090505481565b5f81600381106103ac575f80fd5b015f915054906101000a900473ffffffffffffffffffffffffffffffffffffffff1681565b5f838503610414576040517f08c379a000000000000000000000000000000000000000000000000000000000815260040161040b90611c68565b60405180910390fd5b5f856003811061042757610426611c86565b5b015f9054906101000a900473ffffffffffffffffffffffffffffffffffffffff1673ffffffffffffffffffffffffffffffffffffffff166323b872dd3330866040518463ffffffff1660e01b815260040161048493929190611cb3565b6020604051808303815f875af11580156104a0573d5f5f3e3d5ffd5b505050506040513d601f19601f820116820180604052508101906104c49190611d1d565b505f6104ce610ef9565b90505f600387600381106104e5576104e4611c86565b5b0154856104f29190611d75565b82886003811061050557610504611c86565b5b60200201516105149190611db6565b90505f82876003811061052a57610529611c86565b5b602002015190505f61053e89898587610f6d565b90506003886003811061055457610553611c86565b5b0154600182846105649190611de9565b61056e9190611de9565b6105789190611e49565b94505f620f424061012c8761058d9190611d75565b6105979190611e49565b905080866105a59190611de9565b9550868610156105ea576040517f08c379a00000000000000000000000000000000000000000000000000000000081526004016105e190611ec3565b60405180910390fd5b8760068b600381106105ff576105fe611c86565b5b015f82825461060e9190611db6565b925050819055508560068a6003811061062a57610629611c86565b5b015f8282546106399190611de9565b925050819055505f896003811061065357610652611c86565b5b015f9054906101000a900473ffffffffffffffffffffffffffffffffffffffff1673ffffffffffffffffffffffffffffffffffffffff1663a9059cbb33886040518363ffffffff1660e01b81526004016106ae929190611ee1565b6020604051808303815f875af11580156106ca573d5f5f3e3d5ffd5b505050506040513d601f19601f820116820180604052508101906106ee9190611d1d565b505050505050949350505050565b5f610707848461113c565b50809150508181101561074f576040517f08c379a000000000000000000000000000000000000000000000000000000000815260040161074690611f52565b60405180910390fd5b806006846003811061076457610763611c86565b5b015f8282546107739190611de9565b925050819055506107843385611379565b5f836003811061079757610796611c86565b5b015f9054906101000a900473ffffffffffffffffffffffffffffffffffffffff1673ffffffffffffffffffffffffffffffffffffffff1663a9059cbb33836040518363ffffffff1660e01b81526004016107f2929190611ee1565b6020604051808303815f875af115801561080e573d5f5f3e3d5ffd5b505050506040513d601f19601f820116820180604052508101906108329190611d1d565b509392505050565b600a602052805f5260405f205f915090505481565b5f5f60095490505f5f610860610ef9565b90505f83111561087657610873816113e8565b91505b61087e6117ff565b5f5b6003811015610a02575f88826003811061089d5761089c611c86565b5b602002013590505f8111156109c1575f82600381106108bf576108be611c86565b5b015f9054906101000a900473ffffffffffffffffffffffffffffffffffffffff1673ffffffffffffffffffffffffffffffffffffffff166323b872dd3330846040518463ffffffff1660e01b815260040161091c93929190611cb3565b6020604051808303815f875af1158015610938573d5f5f3e3d5ffd5b505050506040513d601f19601f8201168201806040525081019061095c9190611d1d565b506003826003811061097157610970611c86565b5b01548161097e9190611d75565b84836003811061099157610990611c86565b5b60200201516109a09190611db6565b8383600381106109b3576109b2611c86565b5b6020020181815250506109f6565b8382600381106109d4576109d3611c86565b5b60200201518383600381106109ec576109eb611c86565b5b6020020181815250505b50806001019050610880565b505f610a0d826113e8565b9050838111610a51576040517f08c379a0000000000000000000000000000000000000000000000000000000008152600401610a4890611fba565b60405180910390fd5b5f5f861115610b4f575f5b6003811015610b3e575f8684878460038110610a7b57610a7a611c86565b5b6020020151610a8a9190611d75565b610a949190611e49565b90505f610ab8868460038110610aad57610aac611c86565b5b6020020151836115a7565b9050620f42408160016003610acd9190611de9565b6004610ad99190611d75565b600361012c610ae89190611d75565b610af29190611e49565b610afc9190611d75565b610b069190611e49565b868460038110610b1957610b18611c86565b5b60200201818151610b2a9190611de9565b915081815250505050806001019050610a5c565b50610b48836113e8565b9050610b53565b8190505b5f5b6003811015610bab57898160038110610b7157610b70611c86565b5b602002013560068260038110610b8a57610b89611c86565b5b015f828254610b999190611db6565b92505081905550806001019050610b55565b505f861115610bdd5784868683610bc29190611de9565b610bcc9190611d75565b610bd69190611e49565b9650610be1565b8096505b87871015610c24576040517f08c379a0000000000000000000000000000000000000000000000000000000008152600401610c1b90612022565b60405180910390fd5b610c2e33886115d6565b5f5f90505b6003811015610cc657898160038110610c4f57610c4e611c86565b5b6020020135600b5f3373ffffffffffffffffffffffffffffffffffffffff1673ffffffffffffffffffffffffffffffffffffffff1681526020019081526020015f208260038110610ca357610ca2611c86565b5b015f828254610cb29190611db6565b925050819055508080600101915050610c33565b5050505050505092915050565b5f5f610cdf848461113c565b915091509250929050565b610cf26117ff565b5f60095490505f5b6003811015610e8f575f828660068460038110610d1a57610d19611c86565b5b0154610d269190611d75565b610d309190611e49565b9050848260038110610d4557610d44611c86565b5b6020020135811015610d8c576040517f08c379a0000000000000000000000000000000000000000000000000000000008152600401610d8390611f52565b60405180910390fd5b8060068360038110610da157610da0611c86565b5b015f828254610db09190611de9565b9250508190555080848360038110610dcb57610dca611c86565b5b6020020181815250505f8260038110610de757610de6611c86565b5b015f9054906101000a900473ffffffffffffffffffffffffffffffffffffffff1673ffffffffffffffffffffffffffffffffffffffff1663a9059cbb33836040518363ffffffff1660e01b8152600401610e42929190611ee1565b6020604051808303815f875af1158015610e5e573d5f5f3e3d5ffd5b505050506040513d601f19601f82011682018060405250810190610e829190611d1d565b5050806001019050610cfa565b50610e9a3385611379565b5092915050565b5f5f610eb3610eae610ef9565b6113e8565b90505f60095490505f811115610ef057806012600a610ed2919061216f565b83610edd9190611d75565b610ee79190611e49565b92505050610ef6565b5f925050505b90565b610f016117ff565b5f5b6003811015610f695760038160038110610f2057610f1f611c86565b5b015460068260038110610f3657610f35611c86565b5b0154610f429190611d75565b828260038110610f5557610f54611c86565b5b602002018181525050806001019050610f03565b5090565b5f5f600360016003610f7f9190611de9565b6003610f8b919061216f565b6103e8610f989190611d75565b610fa29190611d75565b90505f610fae846113e8565b90505f5f8290505f5f5b6003811015611032578a8103610fd057889150610ff3565b8981031561102757878160038110610feb57610fea611c86565b5b602002015191505b8184610fff9190611db6565b935081600361100e9190611d75565b858461101a9190611d75565b6110249190611e49565b92505b806001019050610fb8565b508460036110409190611d75565b848361104c9190611d75565b6110569190611e49565b91505f85856110659190611e49565b846110709190611db6565b90505f5f8690505f5b60ff8110156110f85781925087848360026110949190611d75565b61109e9190611db6565b6110a89190611de9565b8683846110b59190611d75565b6110bf9190611db6565b6110c99190611e49565b915060016110d783856115a7565b116110ed57819950505050505050505050611134565b806001019050611079565b506040517f08c379a000000000000000000000000000000000000000000000000000000000815260040161112b90612203565b60405180910390fd5b949350505050565b5f5f5f60095490505f61114d610ef9565b90505f611159826113e8565b90505f8388836111699190611d75565b6111739190611e49565b8261117e9190611de9565b90505f61118c888584611645565b90505f600389600381106111a3576111a2611c86565b5b015482868b600381106111b9576111b8611c86565b5b60200201516111c89190611de9565b6111d29190611e49565b90505f5f5b60038110156112fc578a8103611227578386868984600381106111fd576111fc611c86565b5b602002015161120c9190611d75565b6112169190611e49565b6112209190611de9565b915061127a565b858588836003811061123c5761123b611c86565b5b602002015161124b9190611d75565b6112559190611e49565b87826003811061126857611267611c86565b5b60200201516112779190611de9565b91505b620f4240826001600361128d9190611de9565b60046112999190611d75565b600361012c6112a89190611d75565b6112b29190611e49565b6112bc9190611d75565b6112c69190611e49565b8782600381106112d9576112d8611c86565b5b602002018181516112ea9190611de9565b915081815250508060010190506111d7565b505f6113098b8887611645565b905060038b6003811061131f5761131e611c86565b5b0154600182898e6003811061133757611336611c86565b5b60200201516113469190611de9565b6113509190611de9565b61135a9190611e49565b995089836113689190611de9565b985050505050505050509250929050565b80600a5f8473ffffffffffffffffffffffffffffffffffffffff1673ffffffffffffffffffffffffffffffffffffffff1681526020019081526020015f205f8282546113c59190611de9565b925050819055508060095f8282546113dd9190611de9565b925050819055505050565b5f5f6003600160036113fa9190611de9565b6003611406919061216f565b6103e86114139190611d75565b61141d9190611d75565b90505f5f5b600381101561145b5784816003811061143e5761143d611c86565b5b60200201518261144e9190611db6565b9150806001019050611422565b505f8190505f5f5b60ff811015611566575f8390505f5b60038110156114c25788816003811061148e5761148d611c86565b5b6020020151600361149f9190611d75565b85836114ab9190611d75565b6114b59190611e49565b9150806001019050611472565b5083925080600160036114d59190611db6565b6114df9190611d75565b846001886114ed9190611de9565b6114f79190611d75565b6115019190611db6565b8482600361150f9190611d75565b878961151b9190611d75565b6115259190611db6565b61152f9190611d75565b6115399190611e49565b9350600161154785856115a7565b1161155a578396505050505050506115a2565b50806001019050611463565b506040517f08c379a00000000000000000000000000000000000000000000000000000000081526004016115999061226b565b60405180910390fd5b919050565b5f818310156115c15782826115bc9190611de9565b6115ce565b81836115cd9190611de9565b5b905092915050565b80600a5f8473ffffffffffffffffffffffffffffffffffffffff1673ffffffffffffffffffffffffffffffffffffffff1681526020019081526020015f205f8282546116229190611db6565b925050819055508060095f82825461163a9190611db6565b925050819055505050565b5f5f6003600160036116579190611de9565b6003611663919061216f565b6103e86116709190611d75565b61167a9190611d75565b90505f5f8490505f5f5b60038110156116f7578881146116b3578781600381106116a7576116a6611c86565b5b602002015191506116b8565b6116ec565b81846116c49190611db6565b93508160036116d39190611d75565b87846116df9190611d75565b6116e99190611e49565b92505b806001019050611684565b508360036117059190611d75565b86836117119190611d75565b61171b9190611e49565b91505f848761172a9190611e49565b846117359190611db6565b90505f5f8890505f5b60ff8110156117bc5781925089848360026117599190611d75565b6117639190611db6565b61176d9190611de9565b86838461177a9190611d75565b6117849190611db6565b61178e9190611e49565b9150600161179c83856115a7565b116117b15781985050505050505050506117f8565b80600101905061173e565b506040517f08c379a00000000000000000000000000000000000000000000000000000000081526004016117ef90612203565b60405180910390fd5b9392505050565b6040518060600160405280600390602082028036833780820191505090505090565b5f5ffd5b5f73ffffffffffffffffffffffffffffffffffffffff82169050919050565b5f61184e82611825565b9050919050565b61185e81611844565b8114611868575f5ffd5b50565b5f8135905061187981611855565b92915050565b5f819050919050565b6118918161187f565b811461189b575f5ffd5b50565b5f813590506118ac81611888565b92915050565b5f5f604083850312156118c8576118c7611821565b5b5f6118d58582860161186b565b92505060206118e68582860161189e565b9150509250929050565b6118f98161187f565b82525050565b5f6020820190506119125f8301846118f0565b92915050565b5f6020828403121561192d5761192c611821565b5b5f61193a8482850161186b565b91505092915050565b5f60039050919050565b5f81905092915050565b5f819050919050565b6119698161187f565b82525050565b5f61197a8383611960565b60208301905092915050565b5f602082019050919050565b61199b81611943565b6119a5818461194d565b92506119b082611957565b805f5b838110156119e05781516119c7878261196f565b96506119d283611986565b9250506001810190506119b3565b505050505050565b5f6060820190506119fb5f830184611992565b92915050565b5f60208284031215611a1657611a15611821565b5b5f611a238482850161189e565b91505092915050565b611a3581611844565b82525050565b5f602082019050611a4e5f830184611a2c565b92915050565b5f5f5f5f60808587031215611a6c57611a6b611821565b5b5f611a798782880161189e565b9450506020611a8a8782880161189e565b9350506040611a9b8782880161189e565b9250506060611aac8782880161189e565b91505092959194509250565b5f5f5f60608486031215611acf57611ace611821565b5b5f611adc8682870161189e565b9350506020611aed8682870161189e565b9250506040611afe8682870161189e565b9150509250925092565b5f5ffd5b5f81905082602060030282011115611b2757611b26611b08565b5b92915050565b5f5f60808385031215611b4357611b42611821565b5b5f611b5085828601611b0c565b9250506060611b618582860161189e565b9150509250929050565b5f5f60408385031215611b8157611b80611821565b5b5f611b8e8582860161189e565b9250506020611b9f8582860161189e565b9150509250929050565b5f604082019050611bbc5f8301856118f0565b611bc960208301846118f0565b9392505050565b5f5f60808385031215611be657611be5611821565b5b5f611bf38582860161189e565b9250506020611c0485828601611b0c565b9150509250929050565b5f82825260208201905092915050565b7f69203d206a0000000000000000000000000000000000000000000000000000005f82015250565b5f611c52600583611c0e565b9150611c5d82611c1e565b602082019050919050565b5f6020820190508181035f830152611c7f81611c46565b9050919050565b7f4e487b71000000000000000000000000000000000000000000000000000000005f52603260045260245ffd5b5f606082019050611cc65f830186611a2c565b611cd36020830185611a2c565b611ce060408301846118f0565b949350505050565b5f8115159050919050565b611cfc81611ce8565b8114611d06575f5ffd5b50565b5f81519050611d1781611cf3565b92915050565b5f60208284031215611d3257611d31611821565b5b5f611d3f84828501611d09565b91505092915050565b7f4e487b71000000000000000000000000000000000000000000000000000000005f52601160045260245ffd5b5f611d7f8261187f565b9150611d8a8361187f565b9250828202611d988161187f565b91508282048414831517611daf57611dae611d48565b5b5092915050565b5f611dc08261187f565b9150611dcb8361187f565b9250828201905080821115611de357611de2611d48565b5b92915050565b5f611df38261187f565b9150611dfe8361187f565b9250828203905081811115611e1657611e15611d48565b5b92915050565b7f4e487b71000000000000000000000000000000000000000000000000000000005f52601260045260245ffd5b5f611e538261187f565b9150611e5e8361187f565b925082611e6e57611e6d611e1c565b5b828204905092915050565b7f6479203c206d696e0000000000000000000000000000000000000000000000005f82015250565b5f611ead600883611c0e565b9150611eb882611e79565b602082019050919050565b5f6020820190508181035f830152611eda81611ea1565b9050919050565b5f604082019050611ef45f830185611a2c565b611f0160208301846118f0565b9392505050565b7f6f7574203c206d696e00000000000000000000000000000000000000000000005f82015250565b5f611f3c600983611c0e565b9150611f4782611f08565b602082019050919050565b5f6020820190508181035f830152611f6981611f30565b9050919050565b7f6c6971756964697479206469646e277420696e637265617365000000000000005f82015250565b5f611fa4601983611c0e565b9150611faf82611f70565b602082019050919050565b5f6020820190508181035f830152611fd181611f98565b9050919050565b7f736861726573203c206d696e00000000000000000000000000000000000000005f82015250565b5f61200c600c83611c0e565b915061201782611fd8565b602082019050919050565b5f6020820190508181035f83015261203981612000565b9050919050565b5f8160011c9050919050565b5f5f8291508390505b60018511156120955780860481111561207157612070611d48565b5b60018516156120805780820291505b808102905061208e85612040565b9450612055565b94509492505050565b5f826120ad5760019050612168565b816120ba575f9050612168565b81600181146120d057600281146120da57612109565b6001915050612168565b60ff8411156120ec576120eb611d48565b5b8360020a91508482111561210357612102611d48565b5b50612168565b5060208310610133831016604e8410600b841016171561213e5782820a90508381111561213957612138611d48565b5b612168565b61214b848484600161204c565b9250905081840481111561216257612161611d48565b5b81810290505b9392505050565b5f6121798261187f565b91506121848361187f565b92506121b17fffffffffffffffffffffffffffffffffffffffffffffffffffffffffffffffff848461209e565b905092915050565b7f79206469646e277420636f6e76657267650000000000000000000000000000005f82015250565b5f6121ed601183611c0e565b91506121f8826121b9565b602082019050919050565b5f6020820190508181035f83015261221a816121e1565b9050919050565b7f44206469646e277420636f6e76657267650000000000000000000000000000005f82015250565b5f612255601183611c0e565b915061226082612221565b602082019050919050565b5f6020820190508181035f83015261228281612249565b905091905056fea26469706673582212207909ce0ed15a8a490bcc6b9c294ce20fd185f2764f385109b22e669882a6c4b164736f6c634300081c0033",
        "linkReferences": {}
    },
    "methodIdentifiers": {
        "addLiquidity(uint256[3],uint256)": "a4bf0446",
        "balanceOf(address)": "70a08231",
        "balances(uint256)": "4903b0d1",
        "calcWithdrawOneToken(uint256,uint256)": "a60dc3b1",
        "getUserDeposits(address)": "2a5bf6d2",
        "getVirtualPrice()": "e25aa5fa",
        "removeLiquidity(uint256,uint256[3])": "d035862c",
        "removeLiquidityOneToken(uint256,uint256,uint256)": "7066b5b2",
        "swap(uint256,uint256,uint256,uint256)": "5673b02d",
        "tokens(uint256)": "4f64b2be",
        "totalSupply()": "18160ddd",
        "userDeposits(address,uint256)": "08f43333"
    },
    "id": 22
}